:020000041000EA
:10000000001004303906001035060010D903001026
:1000100055040010B10400100D0500106505001016
:1000200035060010350600103506001035060010A4
:10003000350600103506001035060010BD0500100D
:100040003506001035060010350600103506001084
:100050003506001035060010350600103506001074
:100060003506001035060010350600103506001064
:100070003506001035060010350600103506001054
:100080003506001035060010350600103506001044
:100090003506001035060010350600103506001034
:1000A0003506001035060010350600103506001024
:1000B0003506001035060010350600103506001014
:1000C00040F21400C3F200000021C0E90011C0E9B1
:1000D0000211C0E90411C0E9061140F23400C3F274
:1000E0000000016040F23800C3F20000017040F2ED
:1000F0003900C3F2000001210170704710B540F2D1
:100100003C04C3F200040020C4E90000A06040F2F7
:100110004800C3F20000802100F0CEFA0121002047
:10012000217010BD80B540F2DC7CC1F2000C5CF89F
:1001300020C04FF0000EC80706D100BF88074FEA65
:1001400051010EF1020EF9D50320DCF8001000FA7F
:100150000EF08143CCF80010DCF8001002FA0EF229
:100160001143CCF80010DCF80C1021EA0000CCF8A8
:100170000C00DCF80C0003FA0EF10843CCF80C007C
:1001800080BDD4D400F01F01012202FA01F11C222B
:100190004EF2001302EAD002CEF20003D15040F238
:1001A000C801C3F200010A6801320A6040F2CC01C2
:1001B000C3F200010870704780B540F2D000C3F26E
:1001C0000000602100F078FA40F23010C3F2000025
:1001D0004FF4106100F070FA40F63020C3F20000D6
:1001E0000021016040F63420C3F20000016040F6B7
:1001F0003820C3F200000121017080BD80B540F6B7
:100200003C20C3F200004FF4034100F055FA48F6D9
:100210003C50C3F200000021016048F64050C3F298
:1002200000000121017080BD80B548F64450C3F242
:1002300000004FF4844100F03FFA4CF64470C3F2E2
:100240000000002101604CF64870C3F2000001215B
:10025000017080BD70B543F2000C40F20005049EB1
:10026000441EC4F2010CC3F20005B4FA84F408BFC2
:100270000CF5806CC5F800C04CF64C756409C3F2EF
:1002800000054FF0000EFF2E2C70CCF800E001D9D5
:10029000382415E07F2E01D9302411E03F2E01D9FA
:1002A00028240DE01F2E01D9202409E00F2E01D9AA
:1002B000182405E0072E9ABF082404EA46041024F7
:1002C000002808BF4FF0040E012908BF0EF1020EEE
:1002D000012A08BF0EF1010E012B08BF0EF5006EBA
:1002E000002844EA0E0008BF40F48070CCF80000FB
:1002F000DCF8000040F04000CCF8000070BDD4D421
:10030000B0B540F2D472C1F2000252F820504CF65F
:100310005072C3F200024FF4057300FB03200C4639
:100320004FF4057100F0C8F90C20E8600020286146
:100330006861A268D4E90031012A4FF0000208BFC9
:100340004FF440522A61227B2BB142F20040C0F2AE
:10035000F400B0FBF3F04FF40053022908BF4FF450
:100360003053012908BF4FF41053092A08BF03F581
:100370008073A860EB60B0BD80B543F61400C4F292
:10038000020001684FF0807241F0010101604DF2FE
:100390007831C3F20001002008604A610331102265
:1003A000013A01F8010FFBD140F20400C3F2000052
:1003B000018800200122FFF7B5FE00204FF4E13153
:1003C000FFF79EFF44F24021C0F20F010020BDE87C
:1003D0008040FFF73FBFD4D44EF62850CEF2000045
:1003E00042684FF0000C52004FF000020AD502683C
:1003F000B2F1807F05D2B2F5803F2CBF02690022A6
:1004000000E0C2684DF2943EC3F2000EDEF8001028
:100410004DF29833C3F200030D0103EB011443F8CE
:1004200005C04DF2903C6260C3F2000C0368DCF83A
:100430000020013101F00F01C4E902320F2ACEF889
:1004400000109CBF511CCCF800100168016000BF77
:1004500030BFFDE74EF6285E4DF2943CCEF2000E22
:10046000C3F2000CDEF80C10DCF800304DF29832CC
:10047000C3F2000202EB03101C01012541604DF2A2
:1004800090311551C3F20001DEF800400A68C0E95E
:100490000242581C00F00F000F2ACCF800009CBF4D
:1004A000501C0860DEF80000CEF8000030BFFDE709
:1004B0004EF6285E4DF2943CCEF2000EC3F2000CD4
:1004C000DEF81010DCF800304DF29832C3F2000272
:1004D00002EB03101C01022541604DF290311551D1
:1004E000C3F20001DEF800400A68C0E90242581C6D
:1004F00000F00F000F2ACCF800009CBF501C0860D1
:10050000DEF80000CEF8000030BFFDE74DF2943E6B
:10051000C3F2000EDEF800104DF29832C3F2000272
:10052000080103244EF6285502EB01131450002055
:100530004DF2903CCEF200055860C3F2000C2868E2
:10054000DCF80020C3E90202481C00F00F000F2A6B
:10055000CEF800009CBF501CCCF800002868286032
:1005600030BFFDE74DF2943EC3F2000EDEF80010FE
:100570004DF29832C3F20002080104244EF62855C9
:1005800002EB0113145000204DF2903CCEF2000516
:100590005860C3F2000C2868DCF80020C3E90202AE
:1005A000481C00F00F000F2ACEF800009CBF501C22
:1005B000CCF800002868286030BFFDE74DF2984075
:1005C000C3F20000016801310160704700F0CEF80D
:1005D0004FF4FA5000F0F2F80F20FFF7D3FD00F0CF
:1005E00071F8FFF78BFD40B9FFF71EFE28B9FFF742
:1005F00005FE10B9FFF764FD30B10320002100F0C3
:1006000077F800BF30BFFDE7FFF7B6FEFFF7D4FD78
:1006100030B10320002100F06BF800BF30BFFDE7D0
:100620004DF29C40C3F2000001680131016030BF0F
:10063000FAE7D4D430BFFDE740F200004EF688510F
:10064000C1F20000CEF2000141F8800C086840F4CD
:100650007000086040F2140040F20001BFF34F8FB9
:10066000C3F20000C3F20001BFF36F8F81420CD2CE
:1006700040F6B002C1F200020439043A52F8043FD5
:1006800041F8043F0B1D8342F8D34DF2C04040F2C5
:100690001401C3F20000C3F20001814207D2043901
:1006A000002200BF41F8042F0B1D8342FAD3FFF74D
:1006B0008DFF00BF30BFFDE70021C0E90011C0E998
:1006C000021170474DF2A041C3F200010020086002
:1006D0004DF2A44140F2ED62C3F20001C1F200020A
:1006E00041F8202001300528FAD1704700207047DA
:1006F000F0B581B04DF2A046C3F20006326840F278
:10070000E4740023C1F2000403E000BF0C33CC2BDF
:100710001AD0E7589742F9D1E5186F688742F5D1AA
:100720002B7A8BB14DF2A444C3F2000454F822207A
:1007300072B1054608460F4690470246394628469C
:1007400032B1104601B0F0BD4FF0FF3001B0F0BD46
:1007500054F82020306032B108469047002808BF86
:10076000002001B0F0BD002001B0F0BD42F2000059
:10077000C4F20200016841F4E0610160016821F007
:100780000701016040F20800C3F20000012101608E
:1007900040F20C00C3F20000016040F21000C3F20E
:1007A000000001604DF2B840C3F2000001704DF24C
:1007B000BC40C3F200000021016070474EF21001FE
:1007C00020F07F40CEF200014860072200200A603E
:1007D0007047D4D400400040005000400000024068
:1007E00000040240000000000100000001000000C1
:1007F00001000000020000000100000002000000F3
:1008000001000000010000000200000003000000E1
:1008100001000000010000000300000001000000D2
:1008200003000000010000000100000003000000C0
:1008300004000000010000000100000004000000AE
:1008400001000000020000000400000001000000A0
:100850000000000003000000010000000000000094
:100860000200000000000000020000000000000084
:100870000000000004000000000000000000000074
:100880000400000001000000000000000300000060
:100890000000000000000000040000000200000052
:1008A0000000000004000000030000000000000041
:1008B00000300140050000000100000001000000C0
:0408C0000100000033
:020000043000CA
:10D4C000000000000000000000000000000000005C
:10D4D000000000000000000000000000000000004C
:10D4E000000000000000000000000000000000003C
:10D4F000000000000000000000000000000000002C
:020000043004C6
:00000001FF
